:100000000C9462000C948A000C948A000C948A0070
:100010000C948A000C948A000C948A000C948A0038
:100020000C948A000C948A000C948A000C948A0028
:100030000C948A000C948A000C948A000C948A0018
:100040000C946B010C948A000C945A020C948A0054
:100050000C948A000C948A000C948A000C948A00F8
:100060000C948A000C948A000000000024002700F1
:100070002A0000000000250028002B0000000000DE
:1000800023002600290004040404040404040202DA
:100090000202020203030303030301020408102007
:1000A0004080010204081020010204081020000012
:1000B0000007000201000003040600000000000029
:1000C0000000DF0311241FBECFEFD8E0DEBFCDBF9D
:1000D00011E0A0E0B1E0E6ECF9E002C005900D927D
:1000E000A036B107D9F712E0A0E6B1E001C01D9239
:1000F000A230B107E1F710E0C4ECD0E004C02297D1
:10010000FE010E94DD04C23CD107C9F70E946401D0
:100110000C94E1040C9400008FEE91E00E94900397
:10012000882309F4AEC08FEE91E00E94A40390935F
:10013000610180936001C19759F480914B0161E0A6
:100140000E940D028FEE91E060E071E00E94500489
:100150008091600190916101C29759F480914B01A7
:1001600060E00E940D028FEE91E067E071E00E9476
:1001700050048091600190916101C39759F480917E
:100180004D0161E00E940D028FEE91E06FE071E0A1
:100190000E9450048091600190916101C49759F4CC
:1001A00080914D0160E00E940D028FEE91E066E1CA
:1001B00071E00E9450048091600190916101C597A7
:1001C00059F480914F0161E00E940D028FEE91E0A1
:1001D0006EE171E00E945004809160019091610194
:1001E000C69759F480914F0160E00E940D028FEE96
:1001F00091E065E271E00E9450048091600190916D
:100200006101C79759F48091510161E00E940D028C
:100210008FEE91E06DE271E00E94500480916001E8
:1002200090916101C89759F48091510160E00E945A
:100230000D028FEE91E064E371E00E945004809122
:10024000600190916101C99759F48091530161E077
:100250000E940D028FEE91E06CE371E00E94500469
:100260008091600190916101C09759F48091530190
:1002700060E00E940D028FEE91E063E471E00E9465
:100280005004089580914B0161E00E94ED0180913E
:100290004D0161E00E94ED0180914F0161E00E94FB
:1002A000ED018091510161E00E94ED0180915301C7
:1002B00061E00E94ED018FEE91E040E855E260E0E0
:1002C00070E00E94970208950E94B3010E944201CB
:1002D0000E948C00FDCF1F920F920FB60F92112437
:1002E0002F933F938F939F93AF93BF93809166011A
:1002F00090916701A0916801B091690130916A0104
:100300000196A11DB11D232F2D5F2D3720F02D57F4
:100310000196A11DB11D20936A01809366019093FF
:100320006701A0936801B093690180916201909187
:100330006301A0916401B09165010196A11DB11DF9
:100340008093620190936301A0936401B09365016F
:10035000BF91AF919F918F913F912F910F900FBEC1
:100360000F901F901895789484B5826084BD84B5F1
:10037000816084BD85B5826085BD85B5816085BDA0
:10038000EEE6F0E0808181608083E1E8F0E080814A
:1003900082608083808181608083E0E8F0E08081FA
:1003A00081608083E1EBF0E0808184608083E0EB1A
:1003B000F0E0808181608083EAE7F0E08081846002
:1003C000808380818260808380818160808380815E
:1003D000806880831092C1000895282F30E0C90101
:1003E00086569F4FFC0194912A573F4FF901849103
:1003F000882391F0E82FF0E0EE0FFF1FE859FF4F40
:10040000A591B491662329F48C91909589238C93BE
:1004100008958C91892B8C930895482F50E0CA0140
:1004200082559F4FFC012491CA0186569F4FFC01C3
:1004300094914A575F4FFA0134913323D1F122232B
:1004400031F1233021F4809180008F7705C0243072
:1004500031F4809180008F7D8093800018C021301E
:1004600019F484B58F7704C0223021F484B58F7DD0
:1004700084BD0DC0263021F48091B0008F7705C077
:10048000273029F48091B0008F7D8093B000E32F56
:10049000F0E0EE0FFF1FEE58FF4FA591B4916623D9
:1004A00029F48C91909589238C9308958C91892BB4
:1004B0008C9308951F920F920FB60F9211242F93D1
:1004C0003F934F935F936F937F938F939F93AF93DC
:1004D000BF93EF93FF934091C600E091EB01F09141
:1004E000EC01CF01019660E870E00E9477049C0166
:1004F0008091ED019091EE012817390739F0E55907
:10050000FE4F40833093EC012093EB01FF91EF917C
:10051000BF91AF919F918F917F916F915F914F911B
:100520003F912F910F900FBE0F901F9018955F92E3
:100530006F927F928F929F92AF92BF92CF92DF92F3
:10054000EF92FF920F931F93CF93DF93EC013A0149
:100550004B01413482E458078FE0680780E0780758
:100560000CF07FC060E874E88EE190E0A401930194
:100570000E94AC042150304040405040CA01B901B3
:1005800022E030E040E050E00E94AC0459016A01F2
:10059000A6019501209530954095509594E0220F45
:1005A000331F441F551F9A95D1F760E074E284EF22
:1005B00090E00E94AC04CA01B9012FEF30E040E0A6
:1005C00050E00E945804A40193010E94AC04C901A8
:1005D00081509F4F181619061CF4522E5A9403C0CE
:1005E00055245394521A60E079E08DE390E0A40121
:1005F00093010E94AC042150304040405040CA0159
:10060000B90122E030E040E050E00E94AC042095C7
:1006100030954095509583E0220F331F441F551F9E
:100620008A95D1F760E074E284EF90E00E94AC0418
:10063000CA01B9012FEF30E040E050E00E945804B9
:10064000A40193010E94AC04C90181509F4F181668
:1006500019061CF4822F815002C081E0821B85158F
:1006600000F5E885F98581E090E00A8802C0880FEE
:10067000991F0A94E2F7808360E079E08DE390E0CF
:10068000A40193010E94AC042150304040405040EE
:10069000CA01B90122E030E040E050E00E94AC0421
:1006A00004C0E885F98510829501EC81FD813083D5
:1006B000EE81FF812083EA85FB85208141E050E0C7
:1006C000CA010E8402C0880F991F0A94E2F7282BF2
:1006D0002083EA85FB852081CA010F8402C0880F30
:1006E000991F0A94E2F7282B2083EA85FB858081F5
:1006F000088802C0440F551F0A94E2F7842B8083B8
:10070000DF91CF911F910F91FF90EF90DF90CF90ED
:10071000BF90AF909F908F907F906F905F90089563
:10072000DC011296ED91FC911397E058FF4F8191F7
:10073000919180589F4F20813181821B930B60E8FB
:1007400070E00E9477040895CF93DF93DC01129646
:10075000ED91FC911397EF01CE57DF4F48815981FE
:10076000E058FF4F80819181E058F0408417950751
:1007700019F42FEF3FEF0CC0E40FF51F2081CA01E1
:10078000019660E870E00E9477049983888330E0E6
:10079000C901DF91CF910895FC01A085B185218920
:1007A0008C9190E0022E02C0959587950A94E2F70D
:1007B00080FFF6CF0484F585E02D6083089589E5F8
:1007C00091E09093F0018093EF018BE691E090939C
:1007D000F2018093F10185EC90E09093F401809315
:1007E000F30184EC90E09093F6018093F50180ECA6
:1007F00090E09093F8018093F70181EC90E0909362
:10080000FA018093F90186EC90E09093FC018093CB
:10081000FB0184E08093FD0183E08093FE0187E08B
:100820008093FF0185E08093000281E080930102C4
:1008300008950F931F93CF93DF938C01EB0109C0B1
:100840002196D801ED91FC910190F081E02DC80135
:10085000099568816623A1F7DF91CF911F910F91D0
:100860000895EF92FF920F931F93CF93DF938C0124
:100870007B01EA010CC0D7016D917D01D801ED919A
:10088000FC910190F081E02DC801099521972097F6
:1008900091F7DF91CF911F910F91FF90EF90089505
:1008A000DC01ED91FC910280F381E02D0995089522
:1008B000629FD001739FF001829FE00DF11D649F44
:1008C000E00DF11D929FF00D839FF00D749FF00DD0
:1008D000659FF00D9927729FB00DE11DF91F639F71
:1008E000B00DE11DF91FBD01CF011124089597FB43
:1008F000092E07260AD077FD04D049D006D0002063
:100900001AF4709561957F4F0895F6F7909581954B
:100910009F4F0895A1E21A2EAA1BBB1BFD010DC01B
:10092000AA1FBB1FEE1FFF1FA217B307E407F5079F
:1009300020F0A21BB30BE40BF50B661F771F881F7B
:10094000991F1A9469F760957095809590959B0111
:10095000AC01BD01CF01089597FB092E05260ED0ED
:1009600057FD04D0D7DF0AD0001C38F450954095CD
:10097000309521953F4F4F4F5F4F0895F6F7909573
:100980008095709561957F4F8F4F9F4F0895AA1B5B
:10099000BB1B51E107C0AA1FBB1FA617B70710F06A
:1009A000A61BB70B881F991F5A95A9F7809590959C
:1009B000BC01CD010895EE0FFF1F0590F491E02DCD
:0609C0000994F894FFCF3A
:1009C600535731204F4E00535731204F4646005360
:1009D6005732204F4E00535732204F46460053574A
:1009E60033204F4E00535733204F4646005357345B
:1009F600204F4E00535734204F464600535735205C
:100A06004F4E00535735204F464600020003000460
:100A1600000500060000000000CC031904310400A4
:00000001FF
