:100000000C9462000C948A000C948A000C948A0070
:100010000C948A000C948A000C948A000C948A0038
:100020000C948A000C948A000C948A000C948A0028
:100030000C948A000C948A000C948A000C948A0018
:100040000C94CF010C948A000C9490030C948A00B9
:100050000C948A000C948A000C948A000C948A00F8
:100060000C948A000C948A000000000024002700F1
:100070002A0000000000250028002B0000000000DE
:1000800023002600290004040404040404040202DA
:100090000202020203030303030301020408102007
:1000A0004080010204081020010204081020000012
:1000B0000007000201000003040600000000000029
:1000C0000000D90411241FBECFEFD8E0DEBFCDBFA2
:1000D00011E0A0E0B1E0ECEAFDE002C005900D9275
:1000E000A233B107D9F711E0A2E3B1E001C01D923C
:1000F000A23DB107E1F710E0C4ECD0E004C02297C4
:10010000FE010E94D006C23CD107C9F70E94C80177
:100110000C94D4060C9400000F931F930FEB11E086
:10012000C80160E071E00E944A0560912101709170
:100130002201C8010E943306C80163E071E00E94F9
:100140004A056091230170912401C8010E94330681
:10015000C80167E071E00E944A0560912501709135
:100160002601C8010E943B061F910F9108951F931D
:10017000CF93DF9310911101809113010E944103ED
:10018000682F812F0E94F40261E070E080E090E02F
:100190000E9417028FEB91E06BE071E00E9469050D
:1001A000C0E0D0E0D0932401C093230180911D01D1
:1001B000BE010E947B0268E270E080E090E00E9455
:1001C00017022196C13AD10569F70E948C0068ECAC
:1001D00070E080E090E00E941702C0EAD0E0C09397
:1001E0002101D093220180911B01BE010E947B025C
:1001F00068E270E080E090E00E94170221978FEFA4
:10020000CF3FD80761F70E948C0068EC70E080E077
:1002100090E00E941702C0E0D0E0D0932601C09386
:10022000250180911F01BE010E947B0268E270E0FF
:1002300080E090E00E9417022196C13AD10569F74B
:100240000E948C0068EC70E080E090E00E94170251
:10025000C0EAD0E0C0932301D093240180911D0116
:10026000BE010E947B0268E270E080E090E00E94A4
:10027000170221978FEFCF3FD80761F70E948C00BC
:1002800068EC70E080E090E00E941702C0E0D0E0EF
:10029000D0932201C093210180911B01BE010E94D5
:1002A0007B0268E270E080E090E00E9417022196F5
:1002B000C13AD10569F70E948C0068EC70E080E0DB
:1002C00090E00E941702C0EAD0E0C0932501D093CD
:1002D000260180911F01BE010E947B0268E270E04E
:1002E00080E090E00E94170221978FEFCF3FD80760
:1002F00061F70E948C0068EC70E080E090E00E9462
:100300001702DF91CF911F9108958FEB91E040E0AC
:1003100052EC61E070E00E94CD038091110161E038
:100320000E94D4028091150161E00E94D402809164
:10033000170161E00E94D4028091130160E00E94E5
:10034000D4028091150160E00E94F40280911701AF
:1003500061E00E94F4028091190161E00E94D402E0
:1003600080911D0161E00E94D40280911F0161E033
:100370000E94D4028091190160E00E94F402609111
:1003800021017091220180911B010E947B0208953E
:100390000E9441020E9485010E94B700FDCF1F927A
:1003A0000F920FB60F9211242F933F938F939F9329
:1003B000AF93BF938091360190913701A09138019E
:1003C000B091390130913A010196A11DB11D232F41
:1003D0002D5F2D3720F02D570196A11DB11D2093C3
:1003E0003A018093360190933701A0933801B0937E
:1003F00039018091320190913301A0913401B09183
:1004000035010196A11DB11D8093320190933301F6
:10041000A0933401B0933501BF91AF919F918F911B
:100420003F912F910F900FBE0F901F901895EF9254
:10043000FF920F931F937B018C018FB7F89440912B
:1004400036015091370160913801709139018FBFA9
:100450002FB7F8948091360190913701A09138011F
:10046000B09139012FBF841B950BA60BB70BE81673
:10047000F9060A071B0760F71F910F91FF90EF9095
:100480000895789484B5826084BD84B5816084BD0C
:1004900085B5826085BD85B5816085BDEEE6F0E0FD
:1004A000808181608083E1E8F0E0808182608083E8
:1004B000808181608083E0E8F0E0808181608083DA
:1004C000E1EBF0E0808184608083E0EBF0E080810C
:1004D00081608083EAE7F0E08081846080838081AE
:1004E0008260808380818160808380818068808356
:1004F0001092C10008951F93CF93DF93182FEB0143
:1005000061E00E94D402E12FF0E0E255FF4F8491B8
:10051000833051F480918000806880938000D09374
:100520008900C09388003CC0843051F480918000E1
:10053000806280938000D0938B00C0938A0030C08B
:10054000813039F4209729F184B5806884BDC7BD16
:1005500027C0823039F42097E1F084B5806284BDF1
:10056000C8BD1EC0863041F48091B0008068809381
:10057000B000C093B30014C0873041F48091B00044
:1005800080628093B000C093B4000AC0C038D10527
:100590001CF4812F60E002C0812F61E00E94F40210
:1005A000DF91CF911F910895282F30E0C901865621
:1005B0009F4FFC0194912A573F4FF9018491882362
:1005C00091F0E82FF0E0EE0FFF1FE859FF4FA591E3
:1005D000B491662329F48C91909589238C93089586
:1005E0008C91892B8C930895482F50E0CA01825535
:1005F0009F4FFC012491CA0186569F4FFC019491A4
:100600004A575F4FFA0134913323D1F1222331F15C
:10061000233021F4809180008F7705C0243031F49D
:10062000809180008F7D8093800018C0213019F464
:1006300084B58F7704C0223021F484B58F7D84BDCA
:100640000DC0263021F48091B0008F7705C027308F
:1006500029F48091B0008F7D8093B000E32FF0E00B
:10066000EE0FFF1FEE58FF4FA591B491662329F4BA
:100670008C91909589238C9308958C91892B8C93E0
:100680000895682F70E0CB0182559F4FFC012491A3
:10069000CB0186569F4FFC0144916A577F4FFB0167
:1006A0009491992319F420E030E038C0222331F1ED
:1006B000233021F4809180008F7705C0243031F4FD
:1006C000809180008F7D8093800018C0213019F4C4
:1006D00084B58F7704C0223021F484B58F7D84BD2A
:1006E0000DC0263021F48091B0008F7705C02730EF
:1006F00029F48091B0008F7D8093B000892F90E025
:10070000880F991F84589F4FFC01A591B4918C913B
:1007100020E030E0842311F021E030E0C9010895A9
:100720001F920F920FB60F9211242F933F934F9366
:100730005F936F937F938F939F93AF93BF93EF9349
:10074000FF934091C600E091BB01F091BC01CF0145
:10075000019660E870E00E946A069C018091BD01EC
:100760009091BE012817390739F0E55CFE4F4083B0
:100770003093BC012093BB01FF91EF91BF91AF91EA
:100780009F918F917F916F915F914F913F912F91A9
:100790000F900FBE0F901F9018955F926F927F92EF
:1007A0008F929F92AF92BF92CF92DF92EF92FF9281
:1007B0000F931F93CF93DF93EC013A014B01413428
:1007C00082E458078FE0680780E078070CF07FC06C
:1007D00060E874E88EE190E0A40193010E949F0616
:1007E0002150304040405040CA01B90122E030E081
:1007F00040E050E00E949F0659016A01A601950160
:10080000209530954095509594E0220F331F441F5A
:10081000551F9A95D1F760E074E284EF90E00E9452
:100820009F06CA01B9012FEF30E040E050E00E947E
:100830004B06A40193010E949F06C90181509F4F5E
:10084000181619061CF4522E5A9403C055245394BA
:10085000521A60E079E08DE390E0A40193010E94D8
:100860009F062150304040405040CA01B90122E06B
:1008700030E040E050E00E949F0620953095409582
:10088000509583E0220F331F441F551F8A95D1F7DF
:1008900060E074E284EF90E00E949F06CA01B90113
:1008A0002FEF30E040E050E00E944B06A40193019E
:1008B0000E949F06C90181509F4F181619061CF40B
:1008C000822F815002C081E0821B851500F5E885EA
:1008D000F98581E090E00A8802C0880F991F0A9488
:1008E000E2F7808360E079E08DE390E0A40193017A
:1008F0000E949F062150304040405040CA01B9013B
:1009000022E030E040E050E00E949F0604C0E8850D
:10091000F98510829501EC81FD813083EE81FF81A4
:100920002083EA85FB85208141E050E0CA010E84E6
:1009300002C0880F991F0A94E2F7282B2083EA85CA
:10094000FB852081CA010F8402C0880F991F0A9479
:10095000E2F7282B2083EA85FB858081088802C086
:10096000440F551F0A94E2F7842B8083DF91CF91C7
:100970001F910F91FF90EF90DF90CF90BF90AF90BD
:100980009F908F907F906F905F900895FC01A0855D
:10099000B18521898C9190E0022E02C095958795B2
:1009A0000A94E2F780FFF6CF0484F585E02D60839A
:1009B00008958BE291E09093C0018093BF018BE397
:1009C00091E09093C2018093C10185EC90E09093F7
:1009D000C4018093C30184EC90E09093C60180939E
:1009E000C50180EC90E09093C8018093C70181EC31
:1009F00090E09093CA018093C90186EC90E09093B7
:100A0000CC018093CB0184E08093CD0183E080937F
:100A1000CE0187E08093CF0185E08093D00181E013
:100A20008093D10108950F931F93CF93DF938C018F
:100A3000EB0109C02196D801ED91FC910190F08164
:100A4000E02DC801099568816623A1F7DF91CF9158
:100A50001F910F910895EF92FF920F931F93CF93E1
:100A6000DF938C017B01EA010CC0D7016D917D0100
:100A7000D801ED91FC910190F081E02DC80109951C
:100A80002197209791F7DF91CF911F910F91FF90C0
:100A9000EF900895DC01ED91FC910280F381E02D4F
:100AA000099508950F931F938C01DC01ED91FC9142
:100AB0000190F081E02D6DE00995D801ED91FC9158
:100AC0000190F081E02DC8016AE009951F910F9116
:100AD00008950F931F938C010E944A05C8010E943C
:100AE00052051F910F9108952F923F924F925F925E
:100AF0006F927F928F929F92AF92BF92CF92DF922E
:100B0000EF92FF920F931F93DF93CF93CDB7DEB792
:100B1000A0970FB6F894DEBF0FBECDBF1C016A01CF
:100B20007B01411551056105710549F4DC01ED9129
:100B3000FC910190F081E02D60E3099554C0882478
:100B400099245401422E55246624772401E010E0B4
:100B50000C0F1D1F080D191DC701B601A30192013D
:100B60000E947D06F80160830894811C911CA11CE1
:100B7000B11CC701B601A30192010E947D06C90103
:100B8000DA016C017D01C114D104E104F104F1F634
:100B900081E0E82EF12CEC0EFD1EE80CF91C3E0164
:100BA0000894611C711CD501C4010197A109B10908
:100BB0006C01C818D90814C0F601EE0DFF1D608144
:100BC0006A3010F4605D01C0695CD101ED91FC9167
:100BD0000190F081E02DC10109950894E108F10828
:100BE0006E147F0449F7A0960FB6F894DEBF0FBECF
:100BF000CDBFCF91DF911F910F91FF90EF90DF90CC
:100C0000CF90BF90AF909F908F907F906F905F90AC
:100C10004F903F902F900895EF92FF920F931F9364
:100C2000CF93DF93EC017A018B0177FF0FC0E8814E
:100C3000F9810190F081E02D6DE209951095009504
:100C4000F094E094E11CF11C011D111DCE01B801CE
:100C5000A7012AE00E947405DF91CF911F910F91A7
:100C6000FF90EF900895AB01662757FD6095762FB2
:100C70000E940C0608950F931F938C01AB01662709
:100C800057FD6095762F0E940C06C8010E94520500
:100C90001F910F910895629FD001739FF001829F71
:100CA000E00DF11D649FE00DF11D929FF00D839FFB
:100CB000F00D749FF00D659FF00D9927729FB00D98
:100CC000E11DF91F639FB00DE11DF91FBD01CF01AB
:100CD0001124089597FB092E07260AD077FD04D02A
:100CE00049D006D000201AF4709561957F4F089581
:100CF000F6F7909581959F4F0895A1E21A2EAA1BB1
:100D0000BB1BFD010DC0AA1FBB1FEE1FFF1FA217BB
:100D1000B307E407F50720F0A21BB30BE40BF50BB8
:100D2000661F771F881F991F1A9469F76095709541
:100D3000809590959B01AC01BD01CF01089597FB73
:100D4000092E05260ED057FD04D0D7DF0AD0001C8F
:100D500038F450954095309521953F4F4F4F5F4F58
:100D60000895F6F790958095709561957F4F8F4F18
:100D70009F4F0895AA1BBB1B51E107C0AA1FBB1FB1
:100D8000A617B70710F0A61BB70B881F991F5A9517
:100D9000A9F780959095BC01CD010895EE0FFF1F36
:0C0DA0000590F491E02D0994F894FFCF29
:100DAC00523A0020473A0020423A00537461727460
:100DBC00000D0008000A00090004000300050006ED
:100DCC0000A0000100010000000000C60413052B68
:020DDC00050010
:00000001FF
