:100000000C9403010C942E010C942E010C942E01DF
:100010000C942E010C942E010C942E010C942E01A4
:100020000C942E010C942E010C942E010C942E0194
:100030000C942E010C942E010C942E010C942E0184
:100040000C942E010C942E010C942E010C942E0174
:100050000C942E010C942E010C942E010C946E0223
:100060000C942E010C94EC030C942E010C942E0194
:100070000C942E010C942E010C942E010C942E0144
:100080000C942E010C942E010C942E010C942E0134
:100090000C942D040C942E010C942E010C942E0122
:1000A0000C942E010C942E010C942E010C942E0114
:1000B0000C942E010C942E010C942E010C942E0104
:1000C0000C942E010C942E010C942E010C946E04B1
:1000D0000C942E010C942E010C94AF040C942E0160
:1000E0000C942E0100002100240027002A002D007E
:1000F0003000330001010000040107010A01000083
:100100002200250028002B002E00310034000201BF
:100110000000050108010B0100002000230026005B
:1001200029002C002F00320000010000030106010D
:10013000090105050505070508080808020202026D
:100140000A0A080804040404010101010101010173
:100150000303030303030303040707070C0C0C0C3E
:100160000C0C0C0C02020202060606060606060627
:100170000B0B0B0B0B0B0B0B0102102020080810B4
:100180002040102040800201020108040201010207
:1001900004081020408080402010080402018004E0
:1001A000020180402010080402010804020101023B
:1001B0000408102040800102040810204080000044
:1001C000090A02080B0C0D070603040100000000D9
:1001D000000000000000000000000000000000001F
:1001E00000000000000000000000100F0E000000E2
:1001F00000000000000000000000000000000000FF
:1002000000000000380611241FBECFEFD1E2DEBF90
:10021000CDBF13E0A0E0B2E0E6EBF1E100E00BBF00
:1002200002C007900D92A830B107D9F71BBE15E0A8
:10023000A8E0B3E001C01D92A43DB107E1F712E0D0
:10024000C6E0D2E004C02297FE010E94D508C43067
:10025000D107C9F70E9467020C94D9080C940000DA
:10026000FC0188279927E89421912032E9F329306D
:1002700010F02E30C8F32B3241F02D3239F468944F
:1002800004C00E944E01820F911D219120532A30FB
:10029000C0F31EF4909581959F4F08957AE0979F43
:1002A000902D879F802D910D11240895FF920F931B
:1002B0001F93CF93DF9380910803813409F071C0BD
:1002C00089E093E00E9430019C016AE070E00E94A6
:1002D0006F08EB016333710550F088E895E060E04A
:1002E00072E00E943F0788E895E0BE0112C0C90194
:1002F0006AE070E00E946F088C018230910560F026
:1003000088E895E061E172E00E943F0788E895E0A7
:10031000B8010E94400851C0CE010197C29748F42D
:100320009E012F5F822F602F0E946103209799F01A
:1003300019C02097B9F482E0F82E8F2D602F0E940B
:10034000610361E070E080E090E00E94B602F39407
:1003500034E3F31691F788E895E064E272E00E94D6
:100360003F070BC088E895E06DE272E00E943F070E
:1003700088E895E0BE010E94380888E895E063E3CC
:1003800072E00E943F07012B29F088E895E066E3C0
:1003900072E004C088E895E069E372E00E946E07AD
:1003A0000CC088E895E06DE372E00E943F0788E8A2
:1003B00095E0609108030E945E07DF91CF911F9145
:1003C0000F91FF90089588E895E00E94E905882341
:1003D000A1F188E895E00E94E905882371F188E899
:1003E00095E00E94FD05282F80936E038A3599F4CD
:1003F00088E895E069E572E00E943F0788E895E0AB
:1004000068E073E00E946E070E94560110926D032F
:1004100010926C03DECF80916C0390916D03FC0110
:10042000E85FFC4F20830196FC01E85FFC4F1082DF
:1004300090936D0380936C03CCCF08951F9388E84D
:1004400095E040E052EC61E070E00E94F00412E0C0
:10045000812F61E00E9441031F5F1433C9F788E8D0
:1004600095E060E772E00E946E0788E895E06BE92E
:1004700072E00E946E0788E895E06CEA72E00E94E4
:100480006E0788E895E069ED72E00E943F0788E812
:1004900095E061E070E00E94380888E895E069EE38
:1004A00072E00E943F0788E895E062E370E00E94F6
:1004B000400888E895E06DEE72E00E946E0788E8DB
:1004C00095E060E772E00E946E071F9108950E9418
:1004D000E0020E941E020E94E301FDCF1F920F92D4
:1004E0000FB60F9211242F933F938F939F93AF9347
:1004F000BF938091730390917403A0917503B091A1
:100500007603309177030196A11DB11D232F2D5F36
:100510002D3720F02D570196A11DB11D2093770393
:100520008093730390937403A0937503B093760341
:1005300080916F0390917003A0917103B091720349
:100540000196A11DB11D80936F0390937003A0933A
:100550007103B0937203BF91AF919F918F913F91BF
:100560002F910F900FBE0F901F901895EF92FF9252
:100570000F931F937B018C018FB7F8944091730305
:100580005091740360917503709176038FBF2FB7FC
:10059000F8948091730390917403A0917503B091C6
:1005A00076032FBF841B950BA60BB70BE816F90635
:1005B0000A071B0760F71F910F91FF90EF900895B6
:1005C000789484B5826084BD84B5816084BD85B52E
:1005D000826085BD85B5816085BDEEE6F0E08081F5
:1005E00081608083E1E8F0E08081826080838081A7
:1005F00081608083E0E8F0E0808181608083E1EBCE
:10060000F0E0808184608083E0EBF0E080818160B5
:100610008083E1E9F0E08081826080838081816075
:100620008083E1EAF0E08081826080838081816064
:100630008083E1E2F1E0808182608083808181605B
:100640008083E0E9F0E0808181608083E0EAF0E08F
:10065000808181608083E0E2F1E08081816080833D
:10066000EAE7F0E08081846080838081826080831B
:100670008081816080838081806880831092C10046
:100680000895282F30E0C90188589E4FFC019491AD
:100690002E5C3E4FF9018491882391F0E82FF0E021
:1006A000EE0FFF1FEC51FF4FA591B491662329F483
:1006B0008C91909589238C9308958C91892B8C93A0
:1006C0000895482F50E0CA0182549E4FFC012491A6
:1006D000CA0188589E4FFC0194914E5C5E4FFA010E
:1006E0003491332309F477C0222309F462C0233004
:1006F00021F4809180008F7705C0243031F48091FF
:1007000080008F7D8093800054C0213019F484B51F
:100710008F7704C0223021F484B58F7D84BD49C019
:10072000263021F48091B0008F7705C0273031F456
:100730008091B0008F7D8093B0003BC0283021F4C1
:10074000809190008F7705C0293031F4809190001E
:100750008F7D809390002DC02A3021F480919000ED
:10076000877FF7CF2B3021F48091A0008F770BC0CB
:100770002C3021F48091A0008F7D05C02D3031F404
:100780008091A000877F8093A00013C02E3021F4B9
:10079000809120018F770BC02F3021F480912001B0
:1007A0008F7D05C0203129F480912001877F8093BF
:1007B0002001E32FF0E0EE0FFF1FE250FF4FA59165
:1007C000B491662329F48C91909589238C93089594
:1007D0008C91892B8C9308951F920F920FB60F92D4
:1007E0000BB60F9211242F933F934F935F936F9308
:1007F0007F938F939F93AF93BF93EF93FF9340911A
:10080000C600E091F803F091F903CF01019660E88A
:1008100070E00E946F089C018091FA039091FB03A5
:100820002817390739F0E858FC4F40833093F90313
:100830002093F803FF91EF91BF91AF919F918F911A
:100840007F916F915F914F913F912F910F900BBED0
:100850000F900FBE0F901F9018951F920F920FB61A
:100860000F920BB60F9211242F933F934F935F93E8
:100870006F937F938F939F93AF93BF93EF93FF9368
:100880004091CE00E0917C04F0917D04CF0101966F
:1008900060E870E00E946F089C0180917E04909156
:1008A0007F042817390739F0E450FC4F4083309318
:1008B0007D0420937C04FF91EF91BF91AF919F91B4
:1008C0008F917F916F915F914F913F912F910F90F9
:1008D0000BBE0F900FBE0F901F9018951F920F9296
:1008E0000FB60F920BB60F9211242F933F934F9395
:1008F0005F936F937F938F939F93AF93BF93EF9388
:10090000FF934091D600E0910005F0910105CF01E1
:10091000019660E870E00E946F089C0180910205DA
:10092000909103052817390739F0E058FB4F4083B1
:100930003093010520930005FF91EF91BF91AF9196
:100940009F918F917F916F915F914F913F912F91E7
:100950000F900BBE0F900FBE0F901F9018951F9217
:100960000F920FB60F920BB60F9211242F933F9355
:100970004F935F936F937F938F939F93AF93BF93A7
:10098000EF93FF9340913601E0918405F091850546
:10099000CF01019660E870E00E946F089C01809191
:1009A0008605909187052817390739F0EC5FFA4FD3
:1009B00040833093850520938405FF91EF91BF918B
:1009C000AF919F918F917F916F915F914F913F91E7
:1009D0002F910F900BBE0F900FBE0F901F90189588
:1009E0005F926F927F928F929F92AF92BF92CF92BF
:1009F000DF92EF92FF920F931F93CF93DF93EC015F
:100A00003A014B01413482E458078FE0680780E0E7
:100A100078070CF07FC060E874E88EE190E0A401F4
:100A200093010E94A4082150304040405040CA0128
:100A3000B90122E030E040E050E00E94A4085901F2
:100A40006A01A6019501209530954095509594E056
:100A5000220F331F441F551F9A95D1F760E074E2AF
:100A600084EF90E00E94A408CA01B9012FEF30E0A2
:100A700040E050E00E945008A40193010E94A408A5
:100A8000C90181509F4F181619061CF4522E5A9412
:100A900003C055245394521A60E079E08DE390E04E
:100AA000A40193010E94A4082150304040405040CE
:100AB000CA01B90122E030E040E050E00E94A40801
:100AC000209530954095509583E0220F331F441FA9
:100AD000551F8A95D1F760E074E284EF90E00E94A0
:100AE000A408CA01B9012FEF30E040E050E00E94B5
:100AF0005008A40193010E94A408C90181509F4F8E
:100B0000181619061CF4822F815002C081E0821B46
:100B1000851500F5E885F98581E090E00A8802C036
:100B2000880F991F0A94E2F7808360E079E08DE3F3
:100B300090E0A40193010E94A4082150304040405D
:100B40005040CA01B90122E030E040E050E00E948C
:100B5000A40804C0E885F98510829501EC81FD8127
:100B60003083EE81FF812083EA85FB85208141E08F
:100B700050E0CA010E8402C0880F991F0A94E2F760
:100B8000282B2083EA85FB852081CA010F8402C0BF
:100B9000880F991F0A94E2F7282B2083EA85FB85AA
:100BA0008081088802C0440F551F0A94E2F7842B05
:100BB0008083DF91CF911F910F91FF90EF90DF9095
:100BC000CF90BF90AF909F908F907F906F905F90ED
:100BD0000895DC011296ED91FC911397E058FF4FB8
:100BE0008191919180589F4F20813181821B930B7D
:100BF00060E870E00E946F080895CF93DF93DC01F6
:100C00001296ED91FC911397EF01CE57DF4F48817B
:100C10005981E058FF4F80819181E058F04084175E
:100C2000950719F42FEF3FEF0CC0E40FF51F20815B
:100C3000CA01019660E870E00E946F08998388837A
:100C400030E0C901DF91CF910895FC01A085B18505
:100C500021898C9190E0022E02C0959587950A9487
:100C6000E2F780FFF6CF0484F585E02D60830895D8
:100C700022E033E0309389052093880588E793E0EC
:100C800090938B0580938A0585EC90E090938D0579
:100C900080938C0584EC90E090938F0580938E0573
:100CA00080EC90E0909391058093900581EC90E02A
:100CB000909393058093920586EC90E09093950530
:100CC00080939405E4E0E093960573E070939705B4
:100CD00067E06093980555E05093990541E0409393
:100CE0009A0530939C0520939B058CEF93E090939D
:100CF0009E0580939D058DEC90E09093A0058093D8
:100D00009F058CEC90E09093A2058093A10588EC60
:100D100090E09093A4058093A30589EC90E09093D4
:100D2000A6058093A5058EEC90E09093A80580938E
:100D3000A705E093A9057093AA056093AB055093AE
:100D4000AC054093AD053093AF052093AE0580E828
:100D500094E09093B1058093B00585ED90E0909379
:100D6000B3058093B20584ED90E09093B505809330
:100D7000B40580ED90E09093B7058093B60581EDC2
:100D800090E09093B9058093B80586ED90E090933C
:100D9000BB058093BA05E093BC057093BD056093D5
:100DA000BE055093BF054093C0053093C205209304
:100DB000C10584E095E09093C4058093C30585E365
:100DC00091E09093C6058093C50584E391E09093EC
:100DD000C8058093C70580E391E09093CA0580938E
:100DE000C90581E391E09093CC058093CB0586E320
:100DF00091E09093CE058093CD05E093CF0570935D
:100E0000D0056093D1055093D2054093D305089542
:100E10000F931F93CF93DF938C01EB0109C02196B1
:100E2000D801ED91FC910190F081E02DC801099568
:100E300068816623A1F7DF91CF911F910F910895EB
:100E4000EF92FF920F931F93CF93DF938C017B015F
:100E5000EA010CC0D7016D917D01D801ED91FC91A3
:100E60000190F081E02DC80109952197209791F715
:100E7000DF91CF911F910F91FF90EF900895DC01CA
:100E8000ED91FC910280F381E02D099508950F9377
:100E90001F938C01DC01ED91FC910190F081E02D1C
:100EA0006DE00995D801ED91FC910190F081E02D64
:100EB000C8016AE009951F910F9108950F931F9340
:100EC0008C01DC01ED91FC910190F081E02D099500
:100ED000C8010E9447071F910F9108950F931F9318
:100EE0008C010E943F07C8010E9447071F910F9184
:100EF00008952F923F924F925F926F927F928F92BE
:100F00009F92AF92BF92CF92DF92EF92FF920F9398
:100F10001F93DF93CF93CDB7DEB7A0970FB6F894AA
:100F2000DEBF0FBECDBF1C016A017B01411551051B
:100F30006105710549F4DC01ED91FC910190F081AE
:100F4000E02D60E3099554C0882499245401422E71
:100F500055246624772401E010E00C0F1D1F080DB6
:100F6000191DC701B601A30192010E948208F80170
:100F700060830894811C911CA11CB11CC701B6019F
:100F8000A30192010E948208C901DA016C017D016E
:100F9000C114D104E104F104F1F681E0E82EF12C52
:100FA000EC0EFD1EE80CF91C3E010894611C711C3E
:100FB000D501C4010197A109B1096C01C818D9086C
:100FC00014C0F601EE0DFF1D60816A3010F4605D03
:100FD00001C0695CD101ED91FC910190F081E02D9F
:100FE000C10109950894E108F1086E147F0449F7DE
:100FF000A0960FB6F894DEBF0FBECDBFCF91DF91A4
:101000001F910F91FF90EF90DF90CF90BF90AF9026
:101010009F908F907F906F905F904F903F902F9018
:101020000895EF92FF920F931F93CF93DF93EC01FC
:101030007A018B0177FF0FC0E881F9810190F0817F
:10104000E02D6DE2099510950095F094E094E11C77
:10105000F11C011D111DCE01B801A7012AE00E945B
:101060007907DF91CF911F910F91FF90EF90089535
:10107000AB01662757FD6095762F0E9411080895F1
:101080000F931F938C01AB01662757FD6095762F58
:101090000E941108C8010E9447071F910F910895EF
:1010A000629FD001739FF001829FE00DF11D649F4C
:1010B000E00DF11D929FF00D839FF00D749FF00DD8
:1010C000659FF00D9927729FB00DE11DF91F639F79
:1010D000B00DE11DF91FBD01CF011124089597FB4B
:1010E000092E07260AD077FD04D049D006D000206B
:1010F0001AF4709561957F4F0895F6F79095819554
:101100009F4F0895A1E21A2EAA1BBB1BFD010DC023
:10111000AA1FBB1FEE1FFF1FA217B307E407F507A7
:1011200020F0A21BB30BE40BF50B661F771F881F83
:10113000991F1A9469F760957095809590959B0119
:10114000AC01BD01CF01089597FB092E05260ED0F5
:1011500057FD04D0D7DF0AD0001C38F450954095D5
:10116000309521953F4F4F4F5F4F0895F6F790957B
:101170008095709561957F4F8F4F9F4F0895AA1B63
:10118000BB1B51E107C0AA1FBB1FA617B70710F072
:10119000A61BB70B881F991F5A95A9F780959095A4
:1011A000BC01CD010895EE0FFF1F0590F491E02DD5
:0611B0000994F894FFCF42
:1011B6002A2A2A204572726F7220506F72743A2062
:1011C600002A2A2A204572726F72204F6E2F4F66B0
:1011D600663A2000416C6C2050696E7300506F7245
:1011E6007420003A20004F4E004F4646002A2A2A15
:1011F600204572726F722053746172742043686165
:101206007261637465723A200050617273696E6729
:10121600204F4B202C20636F6D6D616E643A200069
:101226002A2A2A2A2A2A2A2A2A2A2A2A2A2A2A2A18
:101236002A2A2A2A2A2A2A2A2A2A2A2A2A2A2A2A08
:101246002A2A2A2A2A2A2A2A2A2A005374617475E3
:10125600733A205365747570204F4B0020205573E8
:101266006520415B504F52545F4E4F5D5B4F4E2F92
:101276004F46465D5A20746F2073656E6420612068
:10128600636F6D6D616E642E0020202020504F52DA
:10129600542052414E47452000207E200020202029
:1012A600204F4E3D31202C204F46463D3000000059
:0812B6000000250608072007CF
:00000001FF
