:100000000C9462000C948A000C948A000C948A0070
:100010000C948A000C948A000C948A000C948A0038
:100020000C948A000C948A000C948A000C948A0028
:100030000C948A000C948A000C948A000C948A0018
:100040000C94CB010C948A000C94BA020C948A0094
:100050000C948A000C948A000C948A000C948A00F8
:100060000C948A000C948A000000000024002700F1
:100070002A0000000000250028002B0000000000DE
:1000800023002600290004040404040404040202DA
:100090000202020203030303030301020408102007
:1000A0004080010204081020010204081020000012
:1000B0000007000201000003040600000000000029
:1000C00000003F0411241FBECFEFD4E0DEBFCDBF40
:1000D00012E0A0E0B1E0E8E9FCE002C005900D927A
:1000E000A830B107D9F713E0A8E0B2E001C01D9233
:1000F000AF30B107E1F710E0C4ECD0E004C02297C4
:10010000FE010E944606C23CD107C9F70E94C40105
:100110000C944A060C940000FC0188279927E89467
:1001200021912032E9F3293010F02E30C8F32B3220
:1001300041F02D3239F4689404C00E94AA00820F65
:10014000911D219120532A30C0F31EF49095819582
:100150009F4F08957AE0979F902D879F802D910D56
:1001600011240895EF92FF920F931F93DF93CF9383
:100170000F92CDB7DEB780910802813409F06CC0D0
:1001800089E092E00E948C009C016AE070E00E948D
:10019000E0057B016730710550F08CEF92E060E084
:1001A00071E00E94B0048CEF92E0B70112C0C90167
:1001B0006AE070E00E94E0058C018230910560F0F9
:1001C0008CEF92E061E171E00E94B0048CEF92E06C
:1001D000B8010E94B1054CC0C7010197069748F4C9
:1001E0008E2D8F5F602F0E946D02E114F10471F07B
:1001F00014C0E114F10489F492E0892F602F9983EF
:100200000E946D0299819F5F9830B9F78CEF92E060
:1002100064E271E00E94B0040BC08CEF92E06DE2EA
:1002200071E00E94B0048CEF92E0B7010E94A90532
:100230008CEF92E063E371E00E94B004012B29F09F
:100240008CEF92E066E371E004C08CEF92E069E32A
:1002500071E00E94DF040CC08CEF92E06DE371E06E
:100260000E94B0048CEF92E0609108020E94CF04DB
:100270000F90CF91DF911F910F91FF90EF90089514
:100280008CEF92E00E94F0038823A1F18CEF92E0C2
:100290000E94F003882371F18CEF92E00E94040425
:1002A000282F80936E028A3599F48CEF92E069E5ED
:1002B00071E00E94B0048CEF92E068E072E00E946E
:1002C000DF040E94B20010926D0210926C02DECF29
:1002D00080916C0290916D02FC01E85FFD4F2083DC
:1002E0000196FC01E85FFD4F108290936D028093B0
:1002F0006C02CCCF08951F938CEF92E040E052EC5B
:1003000061E070E00E94F70212E0812F61E00E943C
:100310004D021F5F1830C9F78CEF92E060E771E083
:100320000E94DF048CEF92E06BE971E00E94DF0431
:100330008CEF92E06CEA71E00E94DF048CEF92E0B7
:1003400069ED71E00E94B0048CEF92E061E070E032
:100350000E94A9058CEF92E069EE71E00E94B00462
:100360008CEF92E066E070E00E94B1058CEF92E0C5
:100370006DEE71E00E94DF048CEF92E060E771E0C7
:100380000E94DF041F9108950E9413020E947B01C6
:100390000E944001FDCF1F920F920FB60F921124C1
:1003A0002F933F938F939F93AF93BF93809173024B
:1003B00090917402A0917502B0917602309177020B
:1003C0000196A11DB11D232F2D5F2D3720F02D5734
:1003D0000196A11DB11D2093770280937302909323
:1003E0007402A0937502B093760280916F0290918F
:1003F0007002A0917102B09172020196A11DB11D0F
:1004000080936F0290937002A0937102B093720276
:10041000BF91AF919F918F913F912F910F900FBE00
:100420000F901F901895789484B5826084BD84B530
:10043000816084BD85B5826085BD85B5816085BDDF
:10044000EEE6F0E0808181608083E1E8F0E0808189
:1004500082608083808181608083E0E8F0E0808139
:1004600081608083E1EBF0E0808184608083E0EB59
:10047000F0E0808181608083EAE7F0E08081846041
:10048000808380818260808380818160808380819D
:10049000806880831092C1000895282F30E0C90140
:1004A00086569F4FFC0194912A573F4FF901849142
:1004B000882391F0E82FF0E0EE0FFF1FE859FF4F7F
:1004C000A591B491662329F48C91909589238C93FE
:1004D00008958C91892B8C930895482F50E0CA0180
:1004E00082559F4FFC012491CA0186569F4FFC0103
:1004F00094914A575F4FFA0134913323D1F122236B
:1005000031F1233021F4809180008F7705C02430B1
:1005100031F4809180008F7D8093800018C021305D
:1005200019F484B58F7704C0223021F484B58F7D0F
:1005300084BD0DC0263021F48091B0008F7705C0B6
:10054000273029F48091B0008F7D8093B000E32F95
:10055000F0E0EE0FFF1FEE58FF4FA591B491662318
:1005600029F48C91909589238C9308958C91892BF3
:100570008C9308951F920F920FB60F9211242F9310
:100580003F934F935F936F937F938F939F93AF931B
:10059000BF93EF93FF934091C600E091F802F09172
:1005A000F902CF01019660E870E00E94E0059C012D
:1005B0008091FA029091FB022817390739F0E85828
:1005C000FD4F40833093F9022093F802FF91EF91A1
:1005D000BF91AF919F918F917F916F915F914F915B
:1005E0003F912F910F900FBE0F901F9018955F9223
:1005F0006F927F928F929F92AF92BF92CF92DF9233
:10060000EF92FF920F931F93CF93DF93EC013A0188
:100610004B01413482E458078FE0680780E0780797
:100620000CF07FC060E874E88EE190E0A4019301D3
:100630000E9415062150304040405040CA01B90187
:1006400022E030E040E050E00E94150659016A01C6
:10065000A6019501209530954095509594E0220F84
:10066000331F441F551F9A95D1F760E074E284EF61
:1006700090E00E941506CA01B9012FEF30E040E07A
:1006800050E00E94C105A40193010E941506C90112
:1006900081509F4F181619061CF4522E5A9403C00D
:1006A00055245394521A60E079E08DE390E0A40160
:1006B00093010E9415062150304040405040CA012D
:1006C000B90122E030E040E050E00E94150620959C
:1006D00030954095509583E0220F331F441F551FDE
:1006E0008A95D1F760E074E284EF90E00E941506ED
:1006F000CA01B9012FEF30E040E050E00E94C1058F
:10070000A40193010E941506C90181509F4F18163C
:1007100019061CF4822F815002C081E0821B8515CE
:1007200000F5E885F98581E090E00A8802C0880F2D
:10073000991F0A94E2F7808360E079E08DE390E00E
:10074000A40193010E9415062150304040405040C2
:10075000CA01B90122E030E040E050E00E941506F5
:1007600004C0E885F98510829501EC81FD81308314
:10077000EE81FF812083EA85FB85208141E050E006
:10078000CA010E8402C0880F991F0A94E2F7282B31
:100790002083EA85FB852081CA010F8402C0880F6F
:1007A000991F0A94E2F7282B2083EA85FB85808134
:1007B000088802C0440F551F0A94E2F7842B8083F7
:1007C000DF91CF911F910F91FF90EF90DF90CF902D
:1007D000BF90AF909F908F907F906F905F900895A3
:1007E000DC011296ED91FC911397E058FF4F819137
:1007F000919180589F4F20813181821B930B60E83B
:1008000070E00E94E0050895CF93DF93DC0112961B
:10081000ED91FC911397EF01CE57DF4F488159813D
:10082000E058FF4F80819181E058F0408417950790
:1008300019F42FEF3FEF0CC0E40FF51F2081CA0120
:10084000019660E870E00E94E0059983888330E0BB
:10085000C901DF91CF910895FC01A085B18521895F
:100860008C9190E0022E02C0959587950A94E2F74C
:1008700080FFF6CF0484F585E02D6083089582E043
:1008800092E09093FD028093FC0288E792E09093BF
:10089000FF028093FE0285EC90E090930103809329
:1008A000000384EC90E0909303038093020380ECB8
:1008B00090E0909305038093040381EC90E0909383
:1008C00007038093060386EC90E0909309038093DE
:1008D000080384E080930A0383E080930B0387E09E
:1008E00080930C0385E080930D0381E080930E03D9
:1008F00008950F931F93CF93DF938C01EB0109C0F1
:100900002196D801ED91FC910190F081E02DC80174
:10091000099568816623A1F7DF91CF911F910F910F
:100920000895EF92FF920F931F93CF93DF938C0163
:100930007B01EA010CC0D7016D917D01D801ED91D9
:10094000FC910190F081E02DC80109952197209735
:1009500091F7DF91CF911F910F91FF90EF90089544
:10096000DC01ED91FC910280F381E02D0995089561
:100970000F931F938C01DC01ED91FC910190F081AC
:10098000E02D6DE00995D801ED91FC910190F08189
:10099000E02DC8016AE009951F910F9108950F930A
:1009A0001F938C01DC01ED91FC910190F081E02D11
:1009B0000995C8010E94B8041F910F9108950F93E3
:1009C0001F938C010E94B004C8010E94B8041F91BB
:1009D0000F9108952F923F924F925F926F927F9264
:1009E0008F929F92AF92BF92CF92DF92EF92FF923F
:1009F0000F931F93DF93CF93CDB7DEB7A0970FB6BA
:100A0000F894DEBF0FBECDBF1C016A017B0141150A
:100A100051056105710549F4DC01ED91FC910190EE
:100A2000F081E02D60E3099554C088249924540195
:100A3000422E55246624772401E010E00C0F1D1F80
:100A4000080D191DC701B601A30192010E94F3050B
:100A5000F80160830894811C911CA11CB11CC70182
:100A6000B601A30192010E94F305C901DA016C01EC
:100A70007D01C114D104E104F104F1F681E0E82E16
:100A8000F12CEC0EFD1EE80CF91C3E010894611CD3
:100A9000711CD501C4010197A109B1096C01C818E5
:100AA000D90814C0F601EE0DFF1D60816A3010F404
:100AB000605D01C0695CD101ED91FC910190F08114
:100AC000E02DC10109950894E108F1086E147F0436
:100AD00049F7A0960FB6F894DEBF0FBECDBFCF91F9
:100AE000DF911F910F91FF90EF90DF90CF90BF901B
:100AF000AF909F908F907F906F905F904F903F90BE
:100B00002F900895EF92FF920F931F93CF93DF934F
:100B1000EC017A018B0177FF0FC0E881F981019028
:100B2000F081E02D6DE2099510950095F094E09428
:100B3000E11CF11C011D111DCE01B801A7012AE025
:100B40000E94EA04DF91CF911F910F91FF90EF90E7
:100B50000895AB01662757FD6095762F0E948205A8
:100B600008950F931F938C01AB01662757FD609585
:100B7000762F0E948205C8010E94B8041F910F9130
:100B80000895629FD001739FF001829FE00DF11DD7
:100B9000649FE00DF11D929FF00D839FF00D749FF7
:100BA000F00D659FF00D9927729FB00DE11DF91FA3
:100BB000639FB00DE11DF91FBD01CF011124089500
:100BC00097FB092E07260AD077FD04D049D006D01E
:100BD00000201AF4709561957F4F0895F6F790956F
:100BE00081959F4F0895A1E21A2EAA1BBB1BFD0100
:100BF0000DC0AA1FBB1FEE1FFF1FA217B307E407FC
:100C0000F50720F0A21BB30BE40BF50B661F771F53
:100C1000881F991F1A9469F7609570958095909533
:100C20009B01AC01BD01CF01089597FB092E05265C
:100C30000ED057FD04D0D7DF0AD0001C38F45095F1
:100C40004095309521953F4F4F4F5F4F0895F6F7F0
:100C500090958095709561957F4F8F4F9F4F089528
:100C6000AA1BBB1B51E107C0AA1FBB1FA617B707D2
:100C700010F0A61BB70B881F991F5A95A9F78095EE
:100C80009095BC01CD010895EE0FFF1F0590F491E2
:080C9000E02D0994F894FFCF58
:100C98002A2A2A204572726F7220506F72743A2085
:100CA800002A2A2A204572726F72204F6E2F4F66D3
:100CB800663A2000416C6C2050696E7300506F7268
:100CC8007420003A20004F4E004F4646002A2A2A38
:100CD800204572726F722053746172742043686188
:100CE8007261637465723A200050617273696E674D
:100CF800204F4B202C20636F6D6D616E643A20008D
:100D08002A2A2A2A2A2A2A2A2A2A2A2A2A2A2A2A3B
:100D18002A2A2A2A2A2A2A2A2A2A2A2A2A2A2A2A2B
:100D28002A2A2A2A2A2A2A2A2A2A00537461747506
:100D3800733A205365747570204F4B00202055730B
:100D48006520415B504F52545F4E4F5D5B4F4E2FB5
:100D58004F46465D5A20746F2073656E642061208B
:100D6800636F6D6D616E642E0020202020504F52FD
:100D7800542052414E47452000207E20002020204C
:100D8800204F4E3D31202C204F46463D300000007C
:080D980000002C047904910411
:00000001FF
